{
  "contractName": "Funder",
  "abi": [
    {
      "inputs": [],
      "name": "numOfFunders",
      "outputs": [
        {
          "internalType": "uint256",
          "name": "",
          "type": "uint256"
        }
      ],
      "stateMutability": "view",
      "type": "function",
      "constant": true
    },
    {
      "stateMutability": "payable",
      "type": "receive",
      "payable": true
    },
    {
      "inputs": [
        {
          "internalType": "address",
          "name": "recipient",
          "type": "address"
        }
      ],
      "name": "transfer",
      "outputs": [],
      "stateMutability": "payable",
      "type": "function",
      "payable": true
    }
  ],
  "bytecode": "0x608060405234801561001057600080fd5b5061037a806100206000396000f3fe60806040526004361061002d5760003560e01c80631a69523014610039578063af7f2c9b1461005557610034565b3661003457005b600080fd5b610053600480360381019061004e91906101ef565b610080565b005b34801561006157600080fd5b5061006a610186565b6040516100779190610235565b60405180910390f35b671bc16d674ec8000034146100ca576040517f08c379a00000000000000000000000000000000000000000000000000000000081526004016100c1906102ad565b60405180910390fd5b33600160008054815260200190815260200160002060006101000a81548173ffffffffffffffffffffffffffffffffffffffff021916908373ffffffffffffffffffffffffffffffffffffffff16021790555060008081548092919061012f906102fc565b91905055508073ffffffffffffffffffffffffffffffffffffffff166108fc671bc16d674ec800009081150290604051600060405180830381858888f19350505050158015610182573d6000803e3d6000fd5b5050565b60005481565b600080fd5b600073ffffffffffffffffffffffffffffffffffffffff82169050919050565b60006101bc82610191565b9050919050565b6101cc816101b1565b81146101d757600080fd5b50565b6000813590506101e9816101c3565b92915050565b6000602082840312156102055761020461018c565b5b6000610213848285016101da565b91505092915050565b6000819050919050565b61022f8161021c565b82525050565b600060208201905061024a6000830184610226565b92915050565b600082825260208201905092915050565b7f596f75206d7573742073656e642065786163746c7920322045746865722e0000600082015250565b6000610297601e83610250565b91506102a282610261565b602082019050919050565b600060208201905081810360008301526102c68161028a565b9050919050565b7f4e487b7100000000000000000000000000000000000000000000000000000000600052601160045260246000fd5b60006103078261021c565b91507fffffffffffffffffffffffffffffffffffffffffffffffffffffffffffffffff8203610339576103386102cd565b5b60018201905091905056fea2646970667358221220351129e5555a81b3d07f2a8a89c357b5715370d0422a1b28c7d831e1e364a9c764736f6c63430008110033",
  "immutableReferences": {},
  "source": "// SPDX-License-Identifier: MIT\r\npragma solidity >=0.4.22 <0.9.0;\r\n\r\ncontract Funder {\r\n    uint256 public numOfFunders;\r\n    mapping(uint256 => address) private funders;\r\n\r\n    // To accept ether into the contract\r\n    receive() external payable {}\r\n\r\n    // Transfer function to send 2 ETH to the recipient\r\n    function transfer(address recipient) external payable {\r\n        require(msg.value == 2 ether, \"You must send exactly 2 Ether.\");\r\n        \r\n        // Store the sender's address in the funders mapping\r\n        funders[numOfFunders] = msg.sender;\r\n        numOfFunders++;\r\n\r\n        // Send 2 ETH to the recipient\r\n        payable(recipient).transfer(2 ether);\r\n    }\r\n}\r\n",
  "sourcePath": "C:\\Users\\DELL\\Desktop\\bchain\\Transaction\\contracts\\Funder.sol",
  "compiler": {
    "name": "solc",
    "version": "0.8.17+commit.8df45f5f.Emscripten.clang"
  },
  "schemaVersion": "3.4.16",
  "updatedAt": "2024-11-10T12:31:06.155Z",
  "networkType": "ethereum",
  "devdoc": {
    "kind": "dev",
    "methods": {},
    "version": 1
  },
  "userdoc": {
    "kind": "user",
    "methods": {},
    "version": 1
  }
}